:100000000C9434000C9451000C9451000C94510049
:100010000C9451000C9451000C9451000C9451001C
:100020000C9451000C9451000C9451000C943A1211
:100030000C9451000C9451000C9451000C945100FC
:100040000C9451000C9451000C9477010C943501E0
:100050000C9451000C9451000C9451000C945100DC
:100060000C9451000C94510011241FBECFEFD8E026
:10007000DEBFCDBF11E0A0E0B1E0ECE9FBE202C0E1
:1000800005900D92A035B107D9F717E0A0E5B1E0D2
:1000900001C01D92A63DB107E1F70E9456000C94E5
:1000A000CC150C9400000E94810F0895EF92FF92EE
:1000B0000F93DF93CF930F92CDB7DEB7CE010196AA
:1000C00060E570E041E050E00E94AE1569816F5F2D
:1000D000698380E590E00E94BE150E94D80080E010
:1000E0000E94C71382E040E056E960E070E024E03F
:1000F0000E94A01482E00E94E81388E990E060E08A
:1001000071E045E550E020E030E003E0EE24FF241C
:100110000E949D0983E00E9499120E94960A80E045
:1001200090E00F90CF91DF910F91FF90EF900895A5
:100130001F9311E084EF91E00E949908209106013D
:10014000309107014091080150910901DA01C9017C
:10015000880F991FAA1FBB1F820F931FA41FB51FD3
:100160008093060190930701A0930801B0930901C1
:100170000E94C013813011F0109350010E94991415
:10018000813011F0109350010E94DB13813011F087
:10019000109350010E942802813011F010935001F9
:1001A00080915001882331F685E00E94E000C2CFA3
:1001B0008FEF80930A0184B980910A0185B908956F
:1001C0001F93282F8830E8F481E090E002C0880F68
:1001D000991F2A95E2F7182F0E94920380910A0135
:1001E000812329F080910A011095182303C0809182
:1001F0000A01182B10930A0180910A0185B90E9407
:10020000D4061F9108950F931F93282F062F88302F
:10021000D8F481E090E002C0880F991F2A95E2F798
:10022000182F0E949203013029F480910A01109541
:10023000182303C080910A01182B10930A018091A2
:100240000A0185B90E94D4061F910F9108950FB637
:10025000F8940F92E1ECF0E080818F7D80838081C3
:100260008F7780830F900FBE08951F920F920FB665
:100270000F9211242F933F934F935F936F937F932C
:100280008F939F93AF93BF93EF93FF93DF93CF939E
:1002900000D0CDB7DEB78091530190915401BE01DB
:1002A0006F5F7F4FAE014E5F5F4F0E94390C813010
:1002B00021F489818093C60005C08091C1008F7DA3
:1002C0008093C1000F900F90CF91DF91FF91EF913C
:1002D000BF91AF919F918F917F916F915F914F915E
:1002E0003F912F910F900FBE0F901F9018951F9266
:1002F0000F920FB60F9211242F933F934F935F935A
:100300006F937F938F939F93AF93BF93EF93FF93DD
:10031000DF93CF9300D0CDB7DEB71A828091C600AD
:1003200089838091510190915201BE016F5F7F4F8F
:10033000AE014E5F5F4F20E00E948A0C8A818823C5
:1003400011F00E943D120F900F90CF91DF91FF911D
:10035000EF91BF91AF919F918F917F916F915F913D
:100360004F913F912F910F900FBE0F901F901895B6
:10037000DF93CF930F92CDB7DEB76983809153019E
:1003800090915401BE016F5F7F4F20E00E94B50D38
:10039000813011F080E006C08091C10080628093BE
:1003A000C10081E00F90CF91DF91089580915101BC
:1003B0009091520120E00E94FB0C811181E0089590
:1003C000DF92EF92FF920F931F937B018C01D42E4B
:1003D0000FB6F8940F92842F61E040E00E94A20EC5
:1003E00090935201809351018D2D61E040E00E9475
:1003F000A20E909354018093530194E0EE0CFF1CE5
:10040000001F111F9A95D1F760E072E18AE790E032
:10041000A80197010E94681521503040404050408B
:100420002093C400232F342F452F55272093C50038
:1004300088E98093C10086E08093C2000F900FBED0
:1004400080E090E01F910F91FF90EF90DF90089572
:1004500090E080915501882309F491E0892F089557
:10046000F5E00F2EF6E01F2EF7E02F2EF8E03F2EDE
:10047000F9E04F2EFAE05F2EFBE06F2EFCE07F2EBE
:10048000FDE08F2EFEE09F2EFFE0AF2EF0E1BF2EAD
:10049000F1E1CF2EF2E1DF2EF3E1EF2EF4E1FF2EBA
:1004A00005E116E127E138E149E15AE16BE17CE140
:1004B0008DE19EE1AFE1B0E2E1E2F5E0F011009202
:1004C0005501F6E0F11100925501F7E0F2110092AA
:1004D0005501F8E0F31100925501F9E0F411009292
:1004E0005501FAE0F51100925501FBE0F61100927A
:1004F0005501FCE0F71100925501FDE0F811009262
:100500005501FEE0F91100925501FFE0FA11009249
:100510005501F0E1FB1100925501F1E1FC1100924F
:100520005501F2E1FD1100925501F3E1FE11009237
:100530005501F4E1FF1100925501F5E1F01300922D
:100540005501F6E1F11300925501F7E1F213009223
:100550005501F8E1F31300925501F9E1F41300920B
:100560005501FAE1F51300925501FBE1F6130092F3
:100570005501FCE1F71300925501FDE1F8130092DB
:100580005501FEE1F91300925501FFE1FA130092C3
:100590005501F0E2FB1300925501F1E2FE130092C7
:1005A00055015ECFF1E00F2EF2E01F2EF3E02F2E6B
:1005B000F4E03F2EF5E04F2EF6E05F2EF7E06F2ED1
:1005C000F8E07F2EF9E08F2EFAE09F2EFBE0AF2EB1
:1005D000FCE0BF2EFDE0CF2EFEE0DF2EFFE0EF2E91
:1005E000F0E1FF2E01E112E123E134E145E156E1C2
:1005F00067E178E189E19AE1ABE1BCE1EDE1F1E0AD
:10060000F01100925501F2E0F11100925501F3E072
:10061000F21100925501F4E0F31100925501F5E05A
:10062000F41100925501F6E0F51100925501F7E042
:10063000F61100925501F8E0F71100925501F9E02A
:10064000F81100925501FAE0F91100925501FBE012
:10065000FA1100925501FCE0FB1100925501FDE0FA
:10066000FC1100925501FEE0FD1100925501FFE0E2
:10067000FE1100925501F0E1FF1100925501F1E1E8
:10068000F01300925501F2E1F11300925501F3E1EC
:10069000F21300925501F4E1F31300925501F5E1D4
:1006A000F41300925501F6E1F51300925501F7E1BC
:1006B000F61300925501F8E1F71300925501F9E1A4
:1006C000F81300925501FAE1F91300925501FBE18C
:1006D000FA1300925501FCE1FB1300925501FDE174
:1006E000FE13009255015ECFEF92FF920F9380E3CD
:1006F00092E06BE071E045E550E020E030E000E0A2
:10070000EE24FF240E949D0982ED92E060E171E0F9
:1007100045E550E020E030E00E949D090F91FF90F8
:10072000EF900895809158018F5F8093580108954C
:100730000FB6F8940F9220915B0130915C010F90FD
:100740000FBEC901089520915B0130915C01C90180
:100750000895809161010895009721F480915601D8
:10076000909157019C01275E3F4FC90108958091E8
:100770005801882321F081E080935A010895109256
:100780005A012091590199E001C02150299FD001BF
:100790001124A959BE4F8C918823B9F31196ED917C
:1007A000FC9112970280F381E02D1296FC93EE9358
:1007B0001197CD010396E817F90731F482819381EF
:1007C00012969C938E9311971196ED91FC9112972E
:1007D0008681978190935701809356012093590108
:1007E0000895FC0180915F01808380915B0190916D
:1007F0005C01928381830895FC01DB010FB6F894BC
:100800000F9240915B0150915C0190915F0180815A
:10081000981729F08181928148175907E0F42181C6
:1008200032816D917C911197CA01821B930B8617BF
:10083000970788F4241B350B260F371F2D933C9305
:1008400080915F01808380915B0190915C01928334
:10085000818380E001C081E00F900FBE089581E0A8
:1008600080935A010895E0915601F09157018485D3
:100870009585A0915601B0915701E0915601F091F4
:100880005701468924E030E0241B31091D963C9332
:100890002E931C970895009729F4E0915601F0914A
:1008A000570101C0FC010FB6F8940F9285A1823068
:1008B00011F080E002C015A281E00F900FBE0895F4
:1008C000EF92FF920F931F93CF93DF937B01EC0185
:1008D0002DA182E08DA389A19AA1ABA1BCA1019613
:1008E000A11DB11D89A39AA3ABA3BCA3213091F58F
:1008F000809158018823A9F48E010E5F1F4FC80113
:100900000E942F0F9E8980915901891710F49093AE
:10091000590189E0989FC001112489599E4FB8015F
:1009200005C0BE01645F7F4F81EA91E00E94DE0E48
:10093000E0915601F09157019E898689891750F4FC
:10094000E114F10421F081E0F701808303C081E02C
:1009500080935A01DF91CF911F910F91FF90EF90FB
:100960000895EF92FF920F931F93CF93DF93F801B7
:10097000EC010115110541F089A19AA1ABA1BCA11F
:1009800080839183A283B3833DA182E08DA3223033
:1009900099F0233018F4213019F505C02330E1F027
:1009A0002430F1F415C089A19AA1ABA1BCA1842B7C
:1009B000952BA62BB72B07C089A19AA1ABA1BCA1EF
:1009C0000196A11DB11D89A39AA3ABA3BCA308C026
:1009D000323011F480E03AC049A35AA36BA37CA340
:1009E000313099F5809158018823A9F48E010E5F6A
:1009F0001F4FC8010E942F0F9E89809159018917AE
:100A000010F49093590189E0989FC00111248959ED
:100A10009E4FB80105C0BE01645F7F4F81EA91E03F
:100A20000E94DE0EE0915601F09157019E89868961
:100A3000891758F4E114F10421F081E0F701808373
:100A400005C081E080935A0101C081E0DF91CF9120
:100A50001F910F91FF90EF9008950F931F93CF93E5
:100A6000DF93FC01706871836083C681D7810E9427
:100A70002F0F8E010E5F1F4FC8010E942F0F9E89FE
:100A800080915901891710F49093590189E0989F3A
:100A9000C001112489599E4FB8010E94DE0EE091D9
:100AA0005601F09157019E898689891710F080E0E0
:100AB00003C081E080935A01DF91CF911F910F9184
:100AC00008950F931F93CF93DF93DC011596ED915B
:100AD000FC911697C681D7818E01045F1F4FC80114
:100AE0000E942F0F809158018823A1F48E010E5F80
:100AF0001F4FC8010E942F0F9E89809159018917AD
:100B000010F49093590189E0989FC00111248959EC
:100B10009E4F02C081EA91E0B8010E94DE0EE09192
:100B20005601F09157019E898689891710F080E05F
:100B300003C081E080935A01DF91CF911F910F9103
:100B40000895CF92DF92EF92FF920F931F93CF936E
:100B5000DF9380915801882309F0A6C000915B01C2
:100B600010915C010F5F1F4F10935C0100935B01BC
:100B70000115110579F520919D0130919E0180911B
:100B80009F019091A00190939E0180939D013093CD
:100B9000A00120939F0180915F018F5F80935F018F
:100BA000E0919D01F0919E018081882319F48FEFDF
:100BB0009FEF0CC0E0919D01F0919E010580F681B0
:100BC000E02D0680F781E02D8281938190935E0174
:100BD00080935D0180915D0190915E010817190776
:100BE00008F44BC0DD2449E0C42EE0919D01F09152
:100BF0009E018081882319F48FEF9FEF0EC0E09152
:100C00009D01F0919E010580F681E02DC681D7817E
:100C10008A819B810817190728F490935E018093BD
:100C20005D012CC032E0E32EF12CEC0EFD1EC7015D
:100C30000E942F0F8C899D89892B21F0CE010C9663
:100C40000E942F0F9E8980915901891710F490936B
:100C500059019C9DC001112489599E4FB7010E94E2
:100C6000DE0EE0915601F09157019E898689981712
:100C700008F4BBCFDD24D394B8CFDD24E091560136
:100C8000F0915701868990E0FC0123E0EE0FFF1FF1
:100C90002A95E1F7E80FF91FE959FE4F808182306C
:100CA00048F0DD24D39406C0809160018F5F80936B
:100CB0006001DD2480915A01882311F0DD24D39452
:100CC0008D2DDF91CF911F910F91FF90EF90DF90CD
:100CD000CF9008950F931F93CF93DF93F801EC010A
:100CE0000FB6F8940F920115110541F089A19AA150
:100CF000ABA1BCA180839183A283B3833DA182E099
:100D00008DA3223099F0233018F4213019F505C055
:100D10002330E1F02430F1F415C089A19AA1ABA1F0
:100D2000BCA1842B952BA62BB72B07C089A19AA118
:100D3000ABA1BCA10196A11DB11D89A39AA3ABA330
:100D4000BCA308C0323011F480E027C049A35AA3E5
:100D50006BA37CA3313001F58E010E5F1F4FC801DC
:100D60000E942F0F9E8980915901891710F490934A
:100D7000590189E0989FC001112489599E4FB801FB
:100D80000E94DE0EE0915601F09157019E898689FE
:100D9000891710F40E943D1281E00F900FBEDF9181
:100DA000CF911F910F910895EF92FF920F931F9390
:100DB000CF93DF930FB6F8940F9280915801815032
:100DC0008093580180915801882309F06CC080916C
:100DD0006101882309F467C0C0E0D0E059E0E52E46
:100DE000FF24F39429C0E091A601F091A701C681E8
:100DF000D781CE010C960E942F0F8E010E5F1F4FE0
:100E0000C8010E942F0F9E8980915901891710F403
:100E1000909359019E9DC001112489599E4FB8019C
:100E20000E94DE0EE0915601F09157019E8986895D
:100E3000981710F0F0925A018091A101882399F639
:100E4000CD2BD1F0E0919D01F0919E01808188230E
:100E500019F48FEF9FEF0CC0E0919D01F0919E017E
:100E60000580F681E02D0680F781E02D8281938157
:100E700090935E0180935D0110916001112359F000
:100E800001E00E94A105882311F000935A0111503E
:100E9000C1F71092600180915A01882321F00E94CD
:100EA0003D1281E001C080E00F900FBEDF91CF9135
:100EB0001F910F91FF90EF9008950F931F93CF9381
:100EC000DF93EC0100915B0110915C018091560170
:100ED0009091570102960E942F0FC00FD11FE091F1
:100EE0005601F0915701D383C283C017D10768F42C
:100EF00080919F019091A0016091560170915701DE
:100F00006E5F7F4F0E94FD0E17C080919D019091F2
:100F10009E0160915601709157016E5F7F4F0E9454
:100F2000FD0E80915D0190915E01C817D90720F4F4
:100F3000D0935E01C0935D01DF91CF911F910F911E
:100F400008956F927F928F929F92AF92BF92CF92AD
:100F5000DF92EF92FF920F931F93CF93DF935B018A
:100F60006C0139014A01E8010FB6F8940F92E09143
:100F70005601F091570185A1823019F1E091560197
:100F8000F091570181A192A1A3A1B4A1A094B09422
:100F9000C094D0948A219B21AC21BD2181A392A32E
:100FA000A3A3B4A3E0915601F091570181E085A37A
:100FB000E114F10431F0C70161E00E945D070E9475
:100FC0003D120F900FBE0FB6F8940F92209761F06C
:100FD000E0915601F091570181A192A1A3A1B4A182
:100FE00088839983AA83BB83E0915601F0915701CE
:100FF00085A1813011F480E015C0E0915601F09197
:10100000570181A192A1A3A1B4A16094709480948E
:10101000909486219721A821B92181A392A3A3A30B
:10102000B4A381E0E0915601F091570115A20F9011
:101030000FBEDF91CF911F910F91FF90EF90DF9046
:10104000CF90BF90AF909F908F907F906F900895BA
:101050001F93182F0FB6F8940F92E0915601F0915C
:10106000570181A192A1A3A1B4A10097A105B10547
:1010700079F4E0915601F091570181E085A3611563
:10108000710531F0CB0161E00E945D070E943D12C5
:101090000F900FBE0FB6F8940F92E0915601F091A9
:1010A000570121A132A143A154A1211531054105C8
:1010B0005105D9F0112349F0E0915601F091570103
:1010C00011A212A213A214A210C0E0915601F09135
:1010D0005701215030404040504021A332A343A348
:1010E00054A32F5F3F4F4F4F5F4FE0915601F09158
:1010F000570115A20F900FBEB901CA011F910895A3
:101100000F931F938A01E0915601F0915701706887
:10111000758764876091560170915701645F7F4FB6
:101120000E94DE0EC80161E00E945D071F910F91D1
:1011300008959C01009769F0809158018F5F80931A
:101140005801C90160E00E945D070E94D40688230F
:1011500011F40E943D120895FC01809158018F5FA7
:101160008093580140915B0150915C012081318155
:10117000620F731F4217530728F46217730728F092
:1011800080E008C06217730720F080E04617570719
:1011900008F481E071836083882331F0CB01841BE4
:1011A000950B60E00E945D070E94D406882311F42D
:1011B0000E943D1208950F931F938B016091560179
:1011C00070915701645F7F4F0E94FD0EC80161E07E
:1011D0000E945D071F910F910895F894109262018B
:1011E0000E94DC1108950F931F932CC08091580129
:1011F0008F5F809358011091AA010E94D406112399
:1012000009F10FB6F8940F92E091AF01F091B0019F
:1012100006811781C80102960E942F0F80916101FB
:1012200081508093610180916501815080936501B7
:101230000F900FBEF8018789908D0E941811C80188
:101240000E94181180916501882381F680916701C1
:10125000823010F00E943D120E945300F3CF0F9392
:101260001F93CF93DF930FB6F8940F92009729F452
:10127000C0915601D091570101C0EC018E010E5F63
:101280001F4FC8010E942F0F8C899D89892B21F047
:10129000CE010C960E942F0F809166018F5F809384
:1012A00066018091560190915701C817D90759F4EA
:1012B0008AEA91E0B8010E94DE0E809165018F5F9D
:1012C0008093650126C08091610181508093610106
:1012D0008F89988D0E941811CE010E941811E091FB
:1012E0009D01F0919E018081882319F48FEF9FEF7B
:1012F0000CC0E0919D01F0919E010580F681E02DEA
:101300000680F781E02D8281938190935E01809326
:101310005D010F900FBE80916201882349F080919A
:10132000560190915701C817D90711F40E943D1238
:10133000DF91CF911F910F9108954F925F926F921D
:101340007F928F929F92AF92BF92CF92DF92EF9255
:10135000FF920F931F93CF93DF932C01162F972E9D
:101360006A0139015701CA010E9428117C010097C6
:1013700099F086E290E00E942811EC01009749F074
:10138000F88EEF8A812F992D9C01F901DE0190E002
:1013900005C0C7010E9418118FEFB7C08081599610
:1013A0008C9359978081882329F09F5F31961196FD
:1013B0009830A1F718A2043008F003E00E8B72E019
:1013C000872E912C8C0E9D1EC4010E94DA0ECE0138
:1013D0000C960E94DA0ED987C88784E090E0801BC3
:1013E00091099D878C87DB8BCA8B19A21AA21BA23D
:1013F0001CA21DA20894C108D108C7018C0D9D1D17
:10140000B201A3010E945A1199838883A114B104E7
:1014100019F0F501D183C0830FB6F8940F92809133
:1014200061018F5F80936101809156019091570116
:10143000892BA9F5D0935701C09356018091610182
:101440008130E9F587E691E00E94CA0E80E791E0DD
:101450000E94CA0E89E791E00E94CA0E82E891E0DC
:101460000E94CA0E6BE8E62E61E0F62EC7010E94CC
:10147000CA0E04E911E0C8010E94CA0E81EA91E097
:101480000E94CA0E8AEA91E00E94CA0EF0929E0162
:10149000E0929D011093A00100939F0110C08091E4
:1014A0006201882361F4E0915601F0915701968919
:1014B0008E89891720F0D0935701C09356018091EF
:1014C00066018F5F809366019E898091590189171B
:1014D00010F49093590189E0989FC0011124895913
:1014E0009E4FB4010E94DE0E0F900FBE80916201EC
:1014F000882351F0E0915601F091570196898E8929
:10150000981710F40E943D1281E0DF91CF911F9156
:101510000F91FF90EF90DF90CF90BF90AF909F9092
:101520008F907F906F905F904F900895EF92FF9211
:101530000F9383EF98E065E171E045E550E020E02E
:1015400030E000E0E3E6EE2EE1E0FE2E0E949D0991
:10155000813081F4F8948FEF9FEF90935E01809338
:101560005D0181E08093620110925C0110925B0149
:101570000E94A2110F91FF90EF9008950FB6F8947A
:101580000F92FC01828D0F900FBE0895FC010FB6E3
:10159000F8940F92928D0F900FBE838D891B089542
:1015A000FC01828D0895FC01828D90E0882309F46E
:1015B00091E0892F0895FC01928D20E0838D98178A
:1015C00009F421E0822F08950F931F93CF93DF93A7
:1015D000EC01042F1A8D4C8D4423C1F10023B1F48A
:1015E0008C819D8150E00E94A5158C8D2C813D81C0
:1015F000280F311D3D832C838A819B812817390751
:1016000028F1888199819D838C8320C08E819F8160
:1016100050E00E94A5158C8D90E044275527481B6B
:10162000590B8E819F81840F951F9F838E83288104
:1016300039818217930730F48A819B81840F951F2B
:101640009F838E83023011F4111111501F5F1A8F86
:1016500080E0DF91CF911F910F910895FC01562FEB
:10166000A72F248D2223B9F086819781820F911DA7
:1016700097838683228133818217930720F08081AC
:10168000918197838683448D66817781852F9A2FF8
:1016900050E00E94A51508950F931F93CF93DF93F9
:1016A000EC018A8D882341F00E811F81CE010E94BA
:1016B0002E0B1F830E8381E0DF91CF911F910F913D
:1016C00008950F931F93CF93DF93FB018A01EC01E1
:1016D0008A8D882361F18C8D2E813F81280F311DE9
:1016E0003F832E838A819B812817390720F08881C8
:1016F00099819F838E838A8D81508A8F4C8D6E81D4
:101700007F81CF0150E00E94A515F80180818823D8
:1017100069F48885882351F0CE0108960E94590FFC
:10172000882321F081E0F801808301C081E0DF910E
:10173000CF911F910F9108951F93CF93DF93142F93
:10174000EC019A8D8B8D981788F4CE0140E00E94B1
:10175000E40A112359F48989882341F0CE01419686
:101760000E94590F482F811141E0142F812FDF91E2
:10177000CF911F910895CF93DF93FB01EC01F89473
:101780008A8D882371F44115510541F06196CA0193
:10179000BE010E94611078948CEF2FC0789480E095
:1017A0002CC07894F8948A8D882331F18C8D2E8109
:1017B0003F81280F311D3F832E838A819B8128170B
:1017C000390720F0888199819F838E838A8D81508B
:1017D0008A8F4C8D6E817F81CF0150E00E94A515CC
:1017E0008885882341F0CE0108960E94590F8823EE
:1017F00011F08BEF01C081E07894DF91CF910895D3
:10180000CF93DF93EC01F8940FB6F8940F928A8D82
:101810009B8D0F900FBE891771F44115510541F052
:101820002896CA01BE010E94611078948CEF1BC0FB
:10183000789480E018C07894F8948A8D891710F015
:1018400080E010C0CE0140E00E94E40A898988232C
:1018500041F0CE0141960E94590F882311F08BEF81
:1018600001C081E07894DF91CF9108950E94181112
:101870000895EF92FF920F931F93CF93DF937A0116
:10188000EC011A8D112311F480E01AC00D8D0E9415
:101890002E0B11501A8F0F3F81F48885882379F021
:1018A000CE0108960E946105882349F0E114F104F5
:1018B00031F081E0F701808303C00F5F0D8F81E07D
:1018C000DF91CF911F910F91FF90EF900895CF93EB
:1018D000DF93EB01FC01928D838D981710F080E06F
:1018E00016C0868D9F5F928F8F3F71F48189882308
:1018F00069F0CF0141960E946105882339F0209755
:1019000029F081E0888303C08F5F868F81E0DF91BB
:10191000CF910895EF92FF921F93CF93DF937A01B7
:10192000EC019A8D8B8D981720F0223011F080E019
:101930001AC01E8DCE01422F0E94E40A1F3F81F47F
:101940008989882379F0CE0141960E946105882318
:1019500049F0E114F10431F081E0F701808303C024
:101960001F5F1E8F81E0DF91CF911F91FF90EF905D
:101970000895EF92FF921F93CF93DF93EC010FB680
:10198000F8940F921E8D91E1E92EF12CEC0EFD1EC4
:101990000BC08989882351F0C7010E946105882303
:1019A00011F00E942F04115011169CF38FEF8E8FAF
:1019B0000F900FBE0FB6F8940F921D8D88E0E82EA1
:1019C000F12CEC0EFD1E0BC08885882351F0C70159
:1019D0000E946105882311F00E942F0411501116F6
:1019E0009CF38FEF8D8F0F900FBEDF91CF911F91E2
:1019F000FF90EF9008956F927F928F929F92AF9297
:101A0000BF92CF92DF92EF92FF920F931F93DF93DB
:101A1000CF9300D000D00F92CDB7DEB74B015D83DE
:101A20004C83E22E8C0141E1A42EB12CA80EB91EEC
:101A300020E06E010894C11CD11C34E0632E712C8F
:101A40006C0E7D1E01C021E00FB6F8940F92F801D4
:101A5000F28CFF2011F1C680D780C801B4010E942A
:101A60002E0BEE2049F4FA94F801F28E808588233B
:101A700081F0C801089607C0F801D782C682818923
:101A8000882339F0C5010E946105882311F00E9466
:101A90003D120F900FBE81E054C08C819D81892B37
:101AA00021F40F900FBE80E04CC0222319F4C60130
:101AB0000E94F1030F900FBE0E9492030FB6F8949C
:101AC0000F92F801858D8F3F09F4158EF801868DF0
:101AD0008F3F09F4168E0F900FBEC601B3010E940E
:101AE000FC038823F9F40FB6F8940F92F801828D65
:101AF0000F900FBE882381F46C817D81C5010E9407
:101B0000DB08C8010E94B90C0E94D406882309F0A2
:101B10009ACF0E943D1297CFC8010E94B90C0E9433
:101B2000D40691CFC8010E94B90C0E94D4060FB60A
:101B3000F8940F92F801828D0F900FBE882309F060
:101B400082CF0F900F900F900F900F90CF91DF9159
:101B50001F910F91FF90EF90DF90CF90BF90AF90CB
:101B60009F908F907F906F9008956F927F929F9239
:101B7000AF92BF92CF92DF92EF92FF920F931F939B
:101B8000DF93CF9300D000D00F92CDB7DEB76B01BB
:101B90005D834C83922E8C0168E0E62EF12CE80EDA
:101BA000F91E20E05E010894A11CB11C54E0652ED2
:101BB000712C6C0E7D1E01C021E00FB6F8940F92BF
:101BC000F801928D838D981718F0F2E09F16C9F4F2
:101BD000C801B601492D0E94E40A982FF8018189B5
:101BE000882339F0C80141960E946105882329F0B5
:101BF00002C0992311F00E943D120F900FBE81E0A8
:101C00004CC08C819D81892B19F40F900FBE44C06C
:101C1000222319F4C5010E94F1030F900FBE0E9408
:101C200092030FB6F8940F92F801858D8F3F09F457
:101C3000158EF801868D8F3F09F4168E0F900FBE1A
:101C4000C501B3010E94FC03882309F50FB6F8947F
:101C50000F92F801928D0F900FBEF801838D9817A7
:101C600081F46C817D81C7010E94DB08C8010E945C
:101C7000B90C0E94D406882309F09ECF0E943D1221
:101C80009BCFC8010E94B90C0E94D40695CFC80111
:101C90000E94B90C0E94D40680E00F900F900F9024
:101CA0000F900F90CF91DF911F910F91FF90EF90C8
:101CB000DF90CF90BF90AF909F907F906F900895EE
:101CC000CF93DF93EC010FB6F8940F92EC8D2B8D30
:101CD000E29FC001112448815981840F951F9B8385
:101CE0008A831A8E5D834C8330E021503040F0E0CF
:101CF0002E9FC0012F9F900D3E9F900D1124480FE5
:101D0000591F5F834E838FEF8D8F8E8F662361F413
:101D10008885882389F0CE0108960E946105882372
:101D200059F00E943D1208C0CE0108960E94CA0ECA
:101D3000CE0141960E94CA0E0F900FBE81E0DF9146
:101D4000CF9108950F931F93CF93DF93082F162FF2
:101D5000662319F480E090E003C0689FC00111245D
:101D60004F960E942811EC01009771F0112319F48D
:101D70009983888303C04F96998388830B8F1C8F28
:101D8000CE0161E00E94600ECE01DF91CF911F91E4
:101D90000F910895FC019C012D5F3F4F32832183F9
:101DA0008FEF9FEF94838383368325833087278348
:101DB00010820895FC01118610860895AC01FC0183
:101DC000A181B281FB01B383A28314968D919C9172
:101DD0001597958384831496ED91FC9115977383E1
:101DE000628315967C936E931497FB01518740870D
:101DF000FA0180818F5F80830895CF93DF939C01E8
:101E0000EB01488159818FEF4F3F580721F4F901C9
:101E1000A781B0850DC0D90113961296ED91FC9162
:101E20001397808191814817590710F0DF01F5CF92
:101E30001296ED91FC911397FB83EA83D583C483BB
:101E4000BD83AC831396DC93CE9312973987288792
:101E5000F90180818F5F8083DF91CF910895CF93C7
:101E6000DF93DC011896CD91DC91199712964D9174
:101E70005C91139714968D919C911597FA01958317
:101E8000848314962D913C911597F90153834283D5
:101E900089819A818A179B0711F43A8329831996BD
:101EA0001C921E921897888181508883DF91CF9170
:101EB0000895EF92FF920F931F93DC011596ED9119
:101EC000FC911697E680F7808701045F1F4FC801D9
:101ED0000E942F0F84EE91E0B8010E94DE0E20E0F8
:101EE000E091B301F091B401D70156969C91868997
:101EF000981708F021E0822F1F910F91FF90EF902B
:101F00000895FF920F931F93CF93DF9399E0F92EDB
:101F100021C0F894E091E901F091EA01068117816E
:101F2000C8010C960E942F0F7894E8012296CE01EA
:101F30000E942F0FF80196898091B501891710F43E
:101F40009093B5019F9DC001112484549E4FBE0102
:101F50000E94DE0E8091E4018823D9F60E94980346
:101F60002091B6013091B701821B930B9093B90178
:101F70008093B80189E0F82E53C001969093BB017D
:101F80008093BA01215030403093B9012093B801B9
:101F9000892B09F03EC02091E0013091E101809150
:101FA000E2019091E3019093E1018093E00130938D
:101FB000E3012093E2012DC00580F681E02DC6816A
:101FC000D7812091BA013091BB018A819B8128176A
:101FD000390730F1F8948E010E5F1F4FC8010E943F
:101FE0002F0F8C899D89892B21F0CE010C960E94A0
:101FF0002F0F78949E898091B501891710F49093E2
:10200000B5019F9DC001112484549E4FB8010E94C8
:10201000DE0EE091E001F091E1018081882361F61C
:102020002091B8013091B9018091BA019091BB0122
:102030002115310509F0A1CF9093B7018093B60126
:102040009091B50129E006C0992319F41092B501C9
:1020500032C09150929FD0011124A454BE4F8C9154
:10206000882391F39093B5011196ED91FC9112970D
:102070000280F381E02D1296FC93EE931197CD012F
:102080000396E817F90731F48281938112969C93A5
:102090008E9311971196ED91FC9112970680F7811E
:1020A000E02DF093B401E093B30120813181CF01A1
:1020B0006789F9010995DF91CF911F910F91FF90E9
:1020C00008950F931F93CF93DF93EB010091BA0113
:1020D0001091BB01080F191F8091B3019091B401B9
:1020E00002960E942F0FE091B301F091B401138387
:1020F00002838091BA019091BB01BF016E5F7F4F57
:102100000817190728F48091E2019091E30104C0B7
:102110008091E0019091E1010E94FD0E209749F02D
:102120006091B3017091B401645F7F4FCE010E9452
:10213000FD0EDF91CF911F910F910895AF92BF9245
:10214000CF92DF92EF92FF920F931F93CF93DF9383
:102150006C01B62EA42E8AE190E00E942811EC01B9
:10216000009711F48FEF59C08091B3019091B401A1
:10217000892B21F5D093B401C093B3018CEB91E08E
:102180000E94CA0E85EC91E00E94CA0E2EECE22E4F
:1021900021E0F22EC7010E94CA0E07ED11E0C8012E
:1021A0000E94CA0E84EE91E00E94CA0EF092E101F4
:1021B000E092E0011093E3010093E201EB2CBB20DD
:1021C00011F0EE24E394198E188EEE8AAF8AFE0188
:1021D000C192D1928F01CF010E94DA0ECE010C96EE
:1021E0000E94DA0ED987C887DB8BCA8B82E090E029
:1021F0008E1991099D878C879E898091B5018917D9
:1022000010F49093B50189E0989FC0011124845483
:102210009E4FB8010E94DE0E81E0DF91CF911F91A9
:102220000F91FF90EF90DF90CF90BF90AF90089507
:1022300008951092EE011092ED0108952BED35E016
:102240008091ED019091EE01281B390BC901089591
:10225000CF93DF93EC010E9492038091EF01909164
:10226000F001892B31F482EF91E09093F00180939B
:10227000EF012091ED013091EE01CE01820F931F0D
:1022800045E08B3D940770F42817390758F4C09146
:10229000EF01D091F001C20FD31F9093EE01809314
:1022A000ED0102C0C0E0D0E00E94D406CE01DF9173
:1022B000CF910895FC0191E1908322E2229383E380
:1022C000829362937293129280E88293129282E0D8
:1022D000829383E0829384E0829385E0829386E018
:1022E000829387E0829388E0829389E0829380E101
:1022F0008293929382E1829383E1829384E1829339
:1023000085E1829386E1829387E1829388E18293DB
:1023100089E1829380E2829381E28293229383E235
:1023200082934293529386E2829387E2829388E279
:10233000829389E2829380E3829381E3829331974F
:10234000CF010895109289008CE7809388008BE07C
:1023500080938100EFE6F0E0808182608083A0912D
:102360005601B0915701CD91CDBFDD91DEBFFF91F8
:10237000EF91DF91CF91BF91AF919F918F917F911D
:102380006F915F914F913F912F911F910F91FF900E
:10239000EF90DF90CF90BF90AF909F908F907F9005
:1023A0006F905F904F903F902F901F900F900FBEB7
:1023B0000F90089581E0089508950F920FB6F89454
:1023C0000F921F9211242F923F924F925F926F9221
:1023D0007F928F929F92AF92BF92CF92DF92EF92B5
:1023E000FF920F931F932F933F934F935F936F939E
:1023F0007F938F939F93AF93BF93CF93DF93EF938D
:10240000FF93A0915601B09157010DB60D920EB6F3
:102410000D920E94A105882311F00E94B703A0919C
:102420005601B0915701CD91CDBFDD91DEBFFF9137
:10243000EF91DF91CF91BF91AF919F918F917F915C
:102440006F915F914F913F912F911F910F91FF904D
:10245000EF90DF90CF90BF90AF909F908F907F9044
:102460006F905F904F903F902F901F900F900FBEF6
:102470000F9008950E94DD1118950F920FB6F894F1
:102480000F921F9211242F923F924F925F926F9260
:102490007F928F929F92AF92BF92CF92DF92EF92F4
:1024A000FF920F931F932F933F934F935F936F93DD
:1024B0007F938F939F93AF93BF93CF93DF93EF93CC
:1024C000FF93A0915601B09157010DB60D920EB633
:1024D0000D920E94B703A0915601B0915701CD9182
:1024E000CDBFDD91DEBFFF91EF91DF91CF91BF9125
:1024F000AF919F918F917F916F915F914F913F919C
:102500002F911F910F91FF90EF90DF90CF90BF9090
:10251000AF909F908F907F906F905F904F903F9083
:102520002F901F900F900FBE0F90089580911A0169
:1025300008950F931F93082F893008F008E081E079
:1025400061E040E00E94A20E9093CE078093CD07F9
:10255000892B89F010E007C085E093E160E0412F0E
:102560000E949E101F5F1017B8F38EEB92E161E09E
:1025700040E00E949E101F910F9108950F931F93AA
:10258000DF93CF930F92CDB7DEB78C01FC01808D26
:10259000918DF1E0823C9F07B1F021E0833C9207EE
:1025A00051F1892B61F58091CD079091CE07BE0145
:1025B0006F5F7F4F4FEF5FEF0E94BB0B8C3F71F45B
:1025C00082EC91E00FC08091CD079091CE07BE01C3
:1025D0006F5F7F4F40E050E00E94BB0B8B3F31F4B8
:1025E00083EC91E0F801918F808F09C0813019F060
:1025F00010921A01D8CF89810E94E000D4CF0F90A9
:10260000CF91DF911F910F9108950F931F93DF9347
:10261000CF930F92CDB7DEB769838C01FC01808D1B
:10262000918DF1E082389F07F1F021E08338920725
:1026300018F4892B41F03EC0E1E083389E0739F160
:1026400086599140B9F58091CD079091CE07BE0192
:102650006F5F7F4F40E050E00E94000C8C3F71F4B0
:1026600082E891E024C08091CD079091CE07BE0111
:102670006F5F7F4F40E050E00E94000C8B3F19F4E9
:1026800083E891E014C0813011F010921A01E981C1
:10269000F0E0EE0FFF1FE55EFE4F80819181009715
:1026A00021F060E070E00E94611086E991E0F8019D
:1026B000918F808F0F90CF91DF911F910F9108958F
:1026C0009F92AF92BF92CF92DF92EF92FF920F93C1
:1026D0001F93DF93CF9300D000D0CDB7DEB78C012E
:1026E000EE24FF249BE7A92EB12CC12CD12C9924D8
:1026F000939403C081E0E82EF12CA982BA82CB82A8
:10270000DC8289819A81AB81BC81895B9B46AC4F1D
:10271000BF4F89839A83AB83BC8369817A818B8124
:102720009C812DEF3FEF4FEF5FEF0E9435156983DE
:102730007A838B839C8369817A818B819C8127E05A
:1027400030E040E050E00E948A15C901DA01898337
:102750009A83AB83BC8389819A81AB81BC818B5185
:102760009747AE4FBF4F31F6E114F10409F0C2CFE5
:102770000FB6F8940F92F80190820F900FBEBDCF64
:102780008091CF071092CF07811181E00895EF92D9
:10279000FF920F93082F80E693E16BE271E045E52D
:1027A00050E02FEC37E0EE24FF240E949D090F91AA
:1027B000FF90EF9008958091D007882321F08091B9
:1027C000D107811181E01092D0071092D1070895AE
:1027D000EF92FF920F931F93182F8AE062E040E080
:1027E0000E94A20E9093D3078093D207892BB9F051
:1027F00080E594E163E371E045E550E022ED37E0E8
:10280000012FEE24FF240E949D0984E194E16BE3F3
:1028100071E045E550E022ED37E00E949D091F91EF
:102820000F91FF90EF900895CF92DF92EF92FF9279
:102830000F931F93DF93CF9300D0CDB7DEB77C010A
:102840001A82198200E010E06E010894C11CD11CAC
:102850001FC0F70180819181B60140E050E020E087
:102860000E94B50D813011F001E011C0002351F438
:102870000FB6F8940F928091D1078F5F8093D107A4
:102880000F900FBE89819A8101969A8389831F5F79
:102890001330FCF283E090E00E94990810E0D9CF59
:1028A0009F92AF92BF92CF92DF92EF92FF920F93DF
:1028B0001F93DF93CF9300D0CDB7DEB7982EC92EEC
:1028C000DD24EE24FF245E010894A11CB11C23C06A
:1028D000F80180819181B50140E050E020E00E9444
:1028E000FB0C8130C1F429813A812E153F0519F086
:1028F000DD24D3940CC0DD2051F40FB6F8940F9270
:102900008091D0078F5F8093D0070F900FBE790121
:102910000894E11CF11C092D1C2DF8018081918186
:102920000E94BE0A8823A1F68FEE9FEF0E949908AD
:10293000F2CF8091D4071092D407811181E00895DD
:10294000EF92FF920F931F93182F2093D507CB017F
:10295000BA0148E10E94E001012F01508DE095E1AC
:1029600063E471E045E550E020E030E0EE24FF2430
:102970000E949D098AEC94E169E471E045E550E02C
:1029800020E030E0012F0E949D091F910F91FF90E0
:10299000EF900895EF92FF920F931F93DF93CF93E1
:1029A0000F92CDB7DEB700E07E010894E11CF11C68
:1029B00011E480E090E0B7014FEF5FEF0E94D60195
:1029C000882351F08981811711F011E009C08091AD
:1029D000D5078F5F0E94E0001F5F193551F710E0A7
:1029E0008091D5078F5F60E00E940301113069F488
:1029F00007C080E090E0B7014FEF5FEF0E94D60183
:102A000089818835B1F70F5FD3CF02308CF6809182
:102A1000D4078F5F8093D407CBCF1F9311E40EC0F0
:102A200080E090E0612F40E050E00E94B8018130EA
:102A300021F48091D5070E94E0001F5F193584F3CF
:102A40008091D50760E00E9403010E9498030396DD
:102A500066E970E00E9454158233910510F482E318
:102A600090E00E94990811E4DBCF629FD001739F30
:102A7000F001829FE00DF11D649FE00DF11D929F1A
:102A8000F00D839FF00D749FF00D659FF00D992759
:102A9000729FB00DE11DF91F639FB00DE11DF91F7D
:102AA000BD01CF0111240895AA1BBB1B51E107C032
:102AB000AA1FBB1FA617B70710F0A61BB70B881FCE
:102AC000991F5A95A9F780959095BC01CD0108955D
:102AD000A1E21A2EAA1BBB1BFD010DC0AA1FBB1F22
:102AE000EE1FFF1FA217B307E407F50720F0A21B94
:102AF000B30BE40BF50B661F771F881F991F1A9401
:102B000069F760957095809590959B01AC01BD012A
:102B1000CF01089597FB092E05260ED057FD04D04E
:102B2000D7DF0AD0001C38F4509540953095219598
:102B30003F4F4F4F5F4F0895F6F7909580957095F2
:102B400061957F4F8F4F9F4F0895FB01DC0102C0BD
:102B500001900D9241505040D8F70895DC01CB010F
:102B6000FC01F999FECF06C0F2BDE1BDF89A31969D
:102B700000B40D9241505040B8F70895262FF999AE
:102B8000FECF1FBA92BD81BD20BD0FB6F894FA9A50
:0C2B9000F99A0FBE01960895F894FFCF4B
:102B9C00436865636B0003000000FF5265673100FA
:102BAC00526567320049444C4500019600C800FA52
:102BBC00002C015E019001C201F401496E744D615B
:102BCC0074680051436F6E734E42005150726F64C3
:102BDC004E4200434F4D547800434F4D5278000005
:00000001FF
